:020000040800F2
:1000000038040020C10100081B110008C3100008BB
:1000100019110008A902000865120008000000007C
:100020000000000000000000000000003F11000878
:10003000C5020008000000003D1100084111000841
:10004000DB010008DB010008DB010008DB01000820
:10005000DB010008DB010008DB010008DB01000810
:10006000DB010008DB010008DB010008DB01000800
:10007000DB010008DB010008DB010008DB010008F0
:10008000DB010008DB010008DB010008B902000801
:10009000AD020008DB010008DB010008DB010008FD
:1000A000DB010008DB010008DB010008DB010008C0
:1000B000DB010008DB010008DB010008DB010008B0
:1000C000DB010008DB010008DB010008DB010008A0
:1000D000DB010008DB010008DB010008DB01000890
:1000E000DB010008DB010008DB010008DB01000880
:1000F000DB010008DB010008DB010008DB01000870
:10010000DB010008DB010008DB010008DB0100085F
:10011000DB010008DB010008DB010008DB0100084F
:10012000DB010008DB010008DB010008DB0100083F
:10013000DB010008DB010008DB010008DB0100082F
:10014000DB010008DB010008DB010008DB0100081F
:10015000DB010008DB010008DB010008DB0100080F
:10016000DB010008DB010008DB010008DB010008FF
:10017000DB010008DB010008DB01000800000000D3
:10018000DB010008DB010008DB010008DB010008DF
:10019000DB010008DB010008DB010008DB010008CF
:1001A0000000000000000000DB010008DFF80CD0B8
:1001B00000F068F800480047A91200083804002041
:1001C0000648804706480047FEE7FEE7FEE7FEE7F1
:1001D000FEE7FEE7FEE7FEE7FEE7FEE71112000896
:1001E000AD0100082DE9F05F0546002092469B46D0
:1001F00088460646814640241BE02846414647463D
:10020000224600F02FF853465A46C01A914110D3A7
:1002100011461846224600F016F82D1A67EB010821
:100220004F4622460120002100F00DF817EB00098F
:100230004E41201EA4F10104DFDC484631462A4627
:100240004346BDE8F09F202A04DB203A00FA02F181
:10025000002070479140C2F1200320FA03F31943B4
:1002600090407047202A04DB203A21FA02F0002156
:10027000704721FA02F3D040C2F1200291400843B6
:1002800019467047064C074D06E0E06840F0010350
:1002900094E8070098471034AC42F6D3FFF78AFF82
:1002A0005813000878130008FEE70000014800F02A
:1002B00087B8000010000020014800F081B800005D
:1002C000100000207047F0B590F82040012C07D0B6
:1002D00090F82040022C03D0416A41F4802153E081
:1002E0000468A5686D0105D4A5682D0102D4A56830
:1002F000ED0046D5A4680125C4F30164A5401D6046
:100300008D684FF4C0739DB1CE6835434E6845EAA1
:10031000C605066803EB0417F5514FF4C27507686C
:1003200005EB04150E697E51097D012905D009E010
:100330000E88CD6845EA4655EBE701684E5946F40C
:1003400080764E511179D2F805504FF4C67641EAC5
:100350000521056806EB0416A9511178D2F8012091
:100360004FF4C47541EA0221026805EB04155151AE
:10037000006803EB0411425842F001024250002091
:10038000F0BD416A41F4001141620120F0BD7047A7
:100390000146002091F82020012A03D091F8202066
:1003A000022A0CD109688A68520100D501208A68A6
:1003B000120100D5401C8968C90000D5401C704757
:1003C0002DE9F05F0546006800244669D0F80490E6
:1003D0008768D0F80CB0D0F810A0D0F81880F107DA
:1003E00048D0F90714D001218160B80703D5284609
:1003F00000F0DBF90CE0780702D54FF4006407E069
:10040000380702D54FF4805402E0284600F0CCF9BA
:10041000F80516D529684FF480708860B80503D5B3
:10042000284600F0C4F90CE0780502D544F40054E5
:1004300007E0380502D544F4804402E0284600F085
:10044000B5F9F80316D529684FF480308860B803F1
:1004500003D5284600F0ADF90CE0780302D544F44A
:10046000004407E0380302D544F4803402E0284613
:1004700000F09EF9300707D55FEACB6004D5296804
:10048000102044F40074C86070074FF0080707D5C7
:100490005FEA0B7004D52868C760284600F052F95F
:1004A000B00706D52868C068800702D0284600F04B
:1004B0004AF9700607D55FEACA6004D5296810209A
:1004C00044F480640861B00607D55FEA0A7004D579
:1004D00028680761284600F037F9F00606D5286835
:1004E0000069800702D0284600F02FF9B00308D534
:1004F0005FEAC96005D5296810204860284600F0E9
:1005000025F9F00307D55FEA097004D5286847602C
:10051000284600F04FF9300446D55FEA497040D5CF
:10052000F00504D55FEAC87001D044F00104B005BD
:1005300004D55FEA887001D544F00204700504D543
:100540005FEA487001D544F00404300529D518F05D
:10055000700F26D008F07000402815D006DC102857
:1005600009D020280AD0302816D10AE050280ED011
:10057000602811D10EE044F008040DE044F01004AE
:100580000AE044F0200407E044F0400404E044F0B2
:10059000800401E044F480742868816921F07001CE
:1005A0008161296804204860002C05D0686A2043D6
:1005B00068622846FFF7EBFEBDE8F09F70B50400C7
:1005C00003D094F8200010B104E0012070BD204653
:1005D00000F082F82068016821F00201016000F05B
:1005E000EDF90546052604E000F0E8F9401B0A286D
:1005F00011D8206840688007F6D42068016841F06F
:100600000101016000F0DAF905460BE000F0D6F9CF
:10061000401B0A2806D9606A40F40030606284F802
:100620002060D2E720684068C007EFD0207E012814
:10063000206801683DD021F080010160607E0128C2
:100640002068016838D021F040010160A07E0128B7
:100650002068016833D021F020010160E07E01288C
:10066000206801682ED041F010010160207F012830
:100670002068016829D021F008010160607F01280D
:100680002068016824D021F004010160D4E902014E
:100690000843D4E90412114308436168491E084322
:1006A0002168C86100206062012084F820000020D9
:1006B00070BD41F08001C0E741F04001C5E741F065
:1006C0002001CAE721F01001CFE741F00801D4E78B
:1006D00041F00401D9E7000000B50068164987B071
:1006E000884227D115480021026842F0007202605A
:1006F000006800F0007005904FF4407000900220F8
:10070000CDE90101032003900920049069460C48BB
:1007100000F064F800221146132000F0E5F91320E0
:1007200000F0D6F900221146142000F0DDF9142063
:1007300000F0CEF907B000BD006400404038024030
:1007400000040240704770477047704770470000D0
:1007500070B5044690F82000012804D0606A40F487
:100760000020606218E0022084F820002068016800
:1007700021F00101016000F021F905460EE000BF03
:1007800000F01CF9401B0A2808D9606A40F40030C8
:100790006062052084F82000012070BD2068406858
:1007A000C007EDD1606270BD7047704770477047F9
:1007B000704770477047000070B5044600F0FEF8BF
:1007C0000546601C02D004480078044400F0F6F8A6
:1007D000401BA042FAD370BD000000202DE9F84F65
:1007E000DFF890B100224FF001084FF0030A4FF0FC
:1007F0000F090BF1040E00BF0B6808FA02F4234046
:10080000A3426ED14D68022D01D0122D0ED1D50814
:1008100000EB850CDCF820505607F70E09FA07F6B6
:10082000B5430E69BE402E43CCF8206006685500E3
:100830000F790AFA05FC07F0030726EA0C06AF4019
:10084000374307604E68012E05D0022E03D0112ECB
:1008500001D0122E0ED18768CE6827EA0C07AE4071
:100860003E4386604668A6430C79C4F30014944066
:1008700034434460C4688E6824EA0C04AE402643C6
:10088000C6604C68E4006FD53B4C256845F4804554
:100890002560246822F0030504F480440094374C5A
:1008A0002E19D6F8084895072F0F09FA07F5AC431B
:1008B000334DA84201D100252EE0324DA84201D18E
:1008C000012529E0304DA84201D1022524E02F4D19
:1008D000A84201D103251FE02D4DA84202D10425D5
:1008E0001AE041E02B4DA84201D1052514E02A4D24
:1008F000A84201D106250FE0284DA84201D10725C5
:100900000AE0274DA84201D1082505E0254DA8425F
:1009100001D1092500E00A25BD402543C6F8085845
:10092000DBF800405D464E689C43F60300D51C434F
:100930002C60DEF8004075464E689C43B60300D537
:100940001C432C600B4D08352C684E689C43F60206
:1009500000D51C432C60074D0C352C684E689C4319
:10096000B60200D51C432C60521C102AFFF444AF81
:10097000BDE8F88F003C014044380240003001409F
:10098000000002400004024000080240000C024047
:10099000001002400014024000180240001C0240F7
:1009A000002002400024024042694A4042617047F0
:1009B0000AB1816170470904FBE7000001488068C3
:1009C000704700000000002002488168027811444E
:1009D00081607047000000200B4810B5016841F4A9
:1009E00000710160016841F480610160016841F4B7
:1009F00080710160032000F097F8002000F006F8F5
:100A000000F024F8002010BD003C024070B50D4DF0
:100A100004464FF47A712878B1FBF0F00A4909686E
:100A2000B1FBF0F000F035FB48B9102C07D20022E2
:100A30002146501E00F058F800206C6070BD012067
:100A400070BD0000000000200C0000201F4808B509
:100A5000016841F480410160006800F4804000902A
:100A60001A48001F016841F080510160006800F0E1
:100A700080500090032000F057F8002211466FF0DC
:100A80000B0000F031F8002211466FF00A0000F070
:100A90002BF8002211466FF0090000F025F8002223
:100AA0001146501F00F020F800221146101F00F0E0
:100AB0001BF800221146901E00F016F80022BDE837
:100AC00008401146501E00F00FB8000044380240A4
:100AD00000F01F02012191404009800000F1E02058
:100AE000C0F8001170470000F0B40E4B1B680C46B4
:100AF000C3F30223C3F10705042D00D90425191DF2
:100B0000072901D2002300E0DB1E012606FA05F1C9
:100B1000491E214099409E40761E16403143F0BC4C
:100B200000F0FCBA0CED00E0064900F0070208688E
:100B30004FF6FF03184040EA0220034A10430860C2
:100B4000704700000CED00E00000FA052DE9F843C5
:100B50001748016841F0805101600068154F00F0AE
:100B60008050012600903E64FFF728FF05464FF4B1
:100B70007A78114C05E000BFFFF720FF401B40458D
:100B80000DD86068C003F7D57E64FFF717FF0546F0
:100B9000464607E0FFF712FF401BB04202D9032090
:100BA000BDE8F88360688003F4D50020F8E7000012
:100BB0004038024000000E42007000402DE9F0472E
:100BC0000E46050065D0DFF81481D8F80000F7B2B2
:100BD00000F00F00B04207D288F80070D8F800008B
:100BE00000F00F00B04254D128683D4C810712D567
:100BF000400703D5206840F4E050206028780007C3
:100C000003D5206840F4604020602068A96820F087
:100C1000F000084320602878C0072DD0304968686C
:100C20000839012812D0022813D0032811D00968EE
:100C3000890700292DDA216821F003010143216091
:100C4000FFF7BCFE814641F2883A0EE0096889034D
:100C5000EFE709688901ECE7FFF7B0FEA0EB0901B7
:100C6000514502D90320BDE8F0872068696800F08B
:100C70000C00B0EB810FEFD1D8F80010404601F026
:100C80000F01B14207D90770006800F00F00B042B1
:100C900001D00120E7E72878400705D52068E968FA
:100CA00020F4E050084320602878000706D520682B
:100CB000296920F4604040EAC100206000F01CF87F
:100CC0002168084AC1F30311515CC8400649086015
:100CD0000020FFF79BFE0020C5E70000003C02401B
:100CE00008380240481300080C0000200148006842
:100CF000704700000C000020154810B5006810F087
:100D00000C02144813D01449042A0FD0082A0ED11B
:100D10000F4C241F2268236802F03F025B0207D5B4
:100D20002068C0F38810A0FB010106E0084610BD52
:100D30002168C1F38811A1FB00010023FFF752FADB
:100D40002168C1F30141491C4900B0FBF1F010BD1D
:100D5000083802400024F40040787D012DE9F84F66
:100D6000050076D02878DFF8F8B2BE4CC00749D02D
:100D7000DBF800105846C1F38101012908D0006852
:100D8000C0F3810002280AD1201D0068400206D568
:100D90002068800336D568680028E2D032E06868B1
:100DA000B0F5803F10D0B0F5A02F206810D020F40F
:100DB00080302060206820F4802020606868A0B126
:100DC000FFF7FCFD06460CE0206840F48030F4E7B5
:100DD00040F480202060F7E7FFF7F0FD801B6428D7
:100DE00073D820688003F7D50CE0FFF7E7FD0646CF
:100DF00005E000BFFFF7E2FD801B6428F0D8206803
:100E00008003F7D42878DFF8608280074FF000096C
:100E10003ED5DBF80010584611F00C0F09D00068E1
:100E2000C0F3810002280BD18D48001F00684002EA
:100E300006D42068800715D5E868012809D111E09B
:100E4000E868B8B10120C8F80000FFF7B7FD064612
:100E500005E002E1FFF7B2FD801B0228C0D8206840
:100E60008007F7D52068296920F0F80040EAC10022
:100E700020600DE0C8F80090FFF7A0FD064604E0F2
:100E8000FFF79CFD801B02281FD820688007F7D43D
:100E90002878000722D5724E744869696C3671B1A2
:100EA00001210160FFF78AFD074604E0FFF786FD98
:100EB000C01B022809D830688007F7D50EE0C0F8BB
:100EC0000090FFF77BFD074605E083E0FFF776FD26
:100ED000C01B02287ED830688007F7D428784007E6
:100EE00068D5DFF87CA100270AF1380ADAF800009B
:100EF000C0000BD4DAF8001041F08051CAF800109D
:100F0000DAF80000012700F080500090584E306859
:100F1000C00510D4306840F480703060FFF74EFD9B
:100F2000009005E0FFF74AFD0099401A022851D8C9
:100F30003068C005F6D54A4EA868683601280FD03B
:100F40000528306810D020F001003060306820F0B3
:100F500004003060A868B8B1FFF730FD00900FE0E2
:100F6000306840F00100F4E740F004003060F7E73B
:100F7000FFF724FD0099411A41F28830814264D87C
:100F800030688007F4D50EE0FFF718FD009007E009
:100F9000FFF714FD0099411A41F28830814254D87C
:100FA00030688007F4D42FB1DAF8001021F08051B6
:100FB000CAF80010A869C0B3DBF80010C1F38101C2
:100FC00002294AD00228484607D0C8F86000FFF737
:100FD000F5FC00E039E005463AE04746C8F8600015
:100FE000FFF7ECFC064604E0FFF7E8FC801B022854
:100FF0002BD820688001F7D4D5E907010843A96AF6
:101000001C4A490802EB01416A6A41EA821108431D
:1010100095F82C1040EA01611148001F0160012081
:101020003866FFF7CBFC054605E014E0FFF7C6FC89
:10103000401B022809D820688001F7D50BE000BFCB
:10104000FFF7BCFC401B022802D90320BDE8F88F43
:1010500020688001F4D40020F8E70120F6E70000C2
:10106000083802400038024000004742800E4742E4
:10107000007000400000FFFF4FF0E02104280869E5
:1010800003D020F004000861704740F00400FAE744
:10109000704710B5401EB0F1807F01D3012010BD14
:1010A0004FF0E02460610F21601700F037F8002056
:1010B000A06107202061002010BD10B5FFF7E8FFF8
:1010C00010BDFEE70F4810B50D49016005214160D4
:1010D00000214FF400328160C0E9031252014261E5
:1010E0000176417601228276C17601774177FFF75A
:1010F00065FA002803D0CD2103A000F0B5F810BD9B
:1011000000640040100000202E2E2F5372632F6DBC
:1011100061696E2E63000000FEE770470907090E43
:10112000002806DA00F00F0000F1E02080F8141D1E
:10113000704700F1E02080F8001470477047704756
:1011400010B5FFF741FCBDE81040FFF7B6BF000047
:1011500030B5294893B00025016841F08051016005
:10116000006800F0805011902448016841F440412B
:1011700001600068022400F44040119001200090BA
:10118000000401908001CDE9064006200890B420BB
:10119000CDE9090404200B906846FFF7DFFD08B194
:1011A000A12114E0FFF7D2FC08B1A6210FE00CA9A1
:1011B0000F2081E831004FF4A0500F904FF4805081
:1011C000109005210CA8FFF7F9FC18B1B0210CA074
:1011D00000F04AF8FFF78AFD4FF47A71B0FBF1F0A6
:1011E000FFF757FF0420FFF747FF00220F21501E93
:1011F000FFF77AFC13B030BD403802400070004069
:101200002E2E2F5372632F6D61696E2E63000000C6
:101210001048016841F4700101600F48016841F015
:10122000010101600C4A00210832116002680B4B79
:101230001A400260031D0A4A1A60026822F48022E2
:10124000026005480C300160024958068039086088
:101250007047000088ED00E000380240FFFFF6FE16
:1012600010300024FEE70000064E4FF47A744FF46D
:1012700080452046FFF7A0FA29463046FFF794FB49
:10128000F7E700000014024002E008C8121F08C17E
:10129000002AFAD170477047002001E001C1121FF7
:1012A000002AFBD17047000090B0FFF795FBFFF7D5
:1012B0004FFF20480024016841F0020101600168ED
:1012C00001F002010E91016841F020010160006807
:1012D000194E00F020004FF480450E90224629461A
:1012E0003046FFF765FB06950125CDE9075406A9B1
:1012F00030460994FFF772FAFFF7E4FE00940820E5
:101300000294CDE903400DA18DF81440D1E900010C
:101310000BAA82E823000B48FFF71AFA0948FFF7E7
:1013200037F80028FAD00DAB0BAA69460548FEF73E
:10133000CAFFF3E73038024000140240FF00FF000C
:10134000FF0000001000002000000000000000006E
:1013500001020304060708097813000800000020B2
:1013600010000000881200088813000810000020F8
:10137000280400009812000801000000100000007E
:08138000000000000024F4004D
:04000005080001AD41
:00000001FF
