:020000040800F2
:1000000038040020C1010008EB0D0008AF0D000806
:10001000E90D0008A9020008010F00080000000017
:100020000000000000000000000000000F0E0008AB
:10003000AB020008000000000D0E0008110E0008C1
:10004000DB010008DB010008DB010008DB01000820
:10005000DB010008DB010008DB010008DB01000810
:10006000DB010008DB010008DB010008DB01000800
:10007000DB010008DB010008DB010008DB010008F0
:10008000DB010008DB010008DB010008DB010008E0
:10009000DB010008DB010008DB010008DB010008D0
:1000A000DB010008DB010008DB010008DB010008C0
:1000B000DB010008DB010008DB010008DB010008B0
:1000C000DB010008DB010008DB010008DB010008A0
:1000D000DB010008DB010008DB010008DB01000890
:1000E000DB010008DB010008DB010008DB01000880
:1000F000DB010008DB010008DB010008DB01000870
:10010000DB010008DB010008DB010008DB0100085F
:10011000DB010008DB010008DB010008DB0100084F
:10012000DB010008DB010008DB010008DB0100083F
:10013000DB010008DB010008DB010008DB0100082F
:10014000DB010008DB010008DB010008DB0100081F
:10015000DB010008DB010008DB010008DB0100080F
:10016000DB010008DB010008DB010008DB010008FF
:10017000DB010008DB010008DB01000800000000D3
:10018000DB010008DB010008DB010008DB010008DF
:10019000DB010008DB010008DB010008DB010008CF
:1001A0000000000000000000DB010008DFF80CD0B8
:1001B00000F068F800480047210F000838040020CC
:1001C0000648804706480047FEE7FEE7FEE7FEE7F1
:1001D000FEE7FEE7FEE7FEE7FEE7FEE7AD0E0008FE
:1001E000AD0100082DE9F05F0546002092469B46D0
:1001F00088460646814640241BE02846414647463D
:10020000224600F02FF853465A46C01A914110D3A7
:1002100011461846224600F016F82D1A67EB010821
:100220004F4622460120002100F00DF817EB00098F
:100230004E41201EA4F10104DFDC484631462A4627
:100240004346BDE8F09F202A04DB203A00FA02F181
:10025000002070479140C2F1200320FA03F31943B4
:1002600090407047202A04DB203A21FA02F0002156
:10027000704721FA02F3D040C2F1200291400843B6
:1002800019467047064C074D06E0E06840F0010350
:1002900094E8070098471034AC42F6D3FFF78AFF82
:1002A000A40F0008C40F0008FEE77047F0B590F8EF
:1002B0002040012C07D090F82040022C03D0416A46
:1002C00041F4802153E00468A5686D0105D4A56858
:1002D0002D0102D4A568ED0046D5A4680125C4F31C
:1002E0000164A5401D608D684FF4C0739DB1CE6858
:1002F00035434E6845EAC605066803EB0417F55119
:100300004FF4C275076805EB04150E697E51097D2F
:10031000012905D009E00E88CD6845EA4655EBE78E
:1003200001684E5946F480764E511179D2F8055045
:100330004FF4C67641EA0521056806EB0416A9517B
:100340001178D2F801204FF4C47541EA0221026805
:1003500005EB04155151006803EB0411425842F0BB
:10036000010242500020F0BD416A41F40011416297
:100370000120F0BD0146002091F82020012A03D081
:1003800091F82020022A0CD109688A68520100D510
:1003900001208A68120100D5401C8968C90000D577
:1003A000401C704770B5040003D094F8200010B1D1
:1003B00004E0012070BD204600F082F8206801684A
:1003C00021F00201016000F0B3F90546052604E0C2
:1003D00000F0AEF9401B0A2811D820684068800759
:1003E000F6D42068016841F00101016000F0A0F935
:1003F00005460BE000F09CF9401B0A2806D9606A0C
:1004000040F40030606284F82060D2E720684068E1
:10041000C007EFD0207E0128206801683DD021F080
:1004200080010160607E01282068016838D021F0D9
:1004300040010160A07E01282068016833D021F0CE
:1004400020010160E07E0128206801682ED041F083
:1004500010010160207F01282068016829D021F067
:1004600008010160607F01282068016824D021F024
:1004700004010160D4E902010843D4E904121143E4
:1004800008436168491E08432168C8610020606212
:10049000012084F82000002070BD41F08001C0E7F9
:1004A00041F04001C5E741F02001CAE721F0100109
:1004B000CFE741F00801D4E741F00401D9E700009B
:1004C00000B500680E4987B0884217D10D48002159
:1004D000026842F000720260006800F0007005904F
:1004E0004FF4407000900220CDE9010103200390F9
:1004F000092004906946044800F034F807B000BDB4
:1005000000640040403802400004024070B50446D8
:1005100090F82000012804D0606A40F40020606256
:1005200018E0022084F820002068016821F0010111
:10053000016000F0FDF805460EE000BF00F0F8F89D
:10054000401B0A2808D9606A40F400306062052028
:1005500084F82000012070BD20684068C007EDD1FC
:10056000606270BD2DE9F84FDFF890B100224FF0C6
:1005700001084FF0030A4FF00F090BF1040E00BF02
:100580000B6808FA02F42340A3426ED14D68022D95
:1005900001D0122D0ED1D50800EB850CDCF82050CF
:1005A0005607F70E09FA07F6B5430E69BE402E430B
:1005B000CCF82060066855000F790AFA05FC07F0B0
:1005C000030726EA0C06AF40374307604E68012E4A
:1005D00005D0022E03D0112E01D0122E0ED1876825
:1005E000CE6827EA0C07AE403E4386604668A643C5
:1005F0000C79C4F30014944034434460C4688E689A
:1006000024EA0C04AE402643C6604C68E4006FD573
:100610003B4C256845F480452560246822F003059D
:1006200004F480440094374C2E19D6F808489507F6
:100630002F0F09FA07F5AC43334DA84201D100252D
:100640002EE0324DA84201D1012529E0304DA842CB
:1006500001D1022524E02F4DA84201D103251FE03E
:100660002D4DA84202D104251AE041E02B4DA842AD
:1006700001D1052514E02A4DA84201D106250FE03D
:10068000284DA84201D107250AE0274DA84201D1F3
:10069000082505E0254DA84201D1092500E00A25DD
:1006A000BD402543C6F80858DBF800405D464E685B
:1006B0009C43F60300D51C432C60DEF800407546D1
:1006C0004E689C43B60300D51C432C600B4D083587
:1006D0002C684E689C43F60200D51C432C60074DE5
:1006E0000C352C684E689C43B60200D51C432C6028
:1006F000521C102AFFF444AFBDE8F88F003C0140C3
:100700004438024000300140000002400004024032
:1007100000080240000C0240001002400014024099
:1007200000180240001C0240002002400024024049
:10073000014880687047000000000020024881687E
:100740000278114481607047000000200B4810B50A
:10075000016841F400710160016841F48061016049
:10076000016841F480710160032000F08BF80020E3
:1007700000F006F800F024F8002010BD003C024014
:1007800070B50D4D04464FF47A712878B1FBF0F046
:100790000A490968B1FBF0F000F0F1FA48B9102CF1
:1007A00007D200222146501E00F04CF800206C6059
:1007B00070BD012070BD0000000000200C00002072
:1007C0001F4808B5016841F480410160006800F4E9
:1007D000804000901A48001F016841F0805101607C
:1007E000006800F080500090032000F04BF80022D9
:1007F00011466FF00B0000F025F8002211466FF053
:100800000A0000F01FF8002211466FF0090000F006
:1008100019F800221146501F00F014F8002211466A
:10082000101F00F00FF800221146901E00F00AF889
:100830000022BDE808401146501E00F003B8000039
:1008400044380240F0B40E4B1B680C46C3F302233D
:10085000C3F10705042D00D90425191D072901D26C
:10086000002300E0DB1E012606FA05F1491E2140A7
:1008700099409E40761E16403143F0BC00F0B6BA57
:100880000CED00E0064900F0070208684FF6FF0390
:10089000184040EA0220034A1043086070470000F5
:1008A0000CED00E00000FA052DE9F0470E460500CA
:1008B00065D0DFF81481D8F80000F7B200F00F001F
:1008C000B04207D288F80070D8F8000000F00F009E
:1008D000B04254D128683D4C810712D5400703D55A
:1008E000206840F4E05020602878000703D5206895
:1008F00040F4604020602068A96820F0F0000843C0
:1009000020602878C0072DD0304968680839012850
:1009100012D0022813D0032811D0096889070029B2
:100920002DDA216821F0030101432160FFF700FF68
:10093000814641F2883A0EE009688903EFE70968C9
:100940008901ECE7FFF7F4FEA0EB0901514502D95C
:100950000320BDE8F0872068696800F00C00B0EB68
:10096000810FEFD1D8F80010404601F00F01B142DD
:1009700007D90770006800F00F00B04201D00120D5
:10098000E7E72878400705D52068E96820F4E050BB
:10099000084320602878000706D52068296920F4DC
:1009A000604040EAC100206000F01CF82168084A5D
:1009B000C1F30311515CC840064908600020FFF7ED
:1009C000DFFE0020C5E70000003C0240083802407E
:1009D000940F00080C0000200148006870470000D8
:1009E0000C000020154810B5006810F00C021448E7
:1009F00013D01449042A0FD0082A0ED10F4C241FFB
:100A00002268236802F03F025B0207D52068C0F32A
:100A10008810A0FB010106E0084610BD2168C1F363
:100A20008811A1FB00010023FFF7DCFB2168C1F363
:100A30000141491C4900B0FBF1F010BD08380240EB
:100A40000024F40040787D012DE9F84F050076D0B0
:100A50002878DFF8F8B2BE4CC00749D0DBF80010A8
:100A60005846C1F38101012908D00068C0F3810014
:100A700002280AD1201D0068400206D520688003A4
:100A800036D568680028E2D032E06868B0F5803F6B
:100A900010D0B0F5A02F206810D020F48030206056
:100AA000206820F4802020606868A0B1FFF740FE35
:100AB00006460CE0206840F48030F4E740F48020E3
:100AC0002060F7E7FFF734FE801B642873D82068A6
:100AD0008003F7D50CE0FFF72BFE064605E000BFCC
:100AE000FFF726FE801B6428F0D820688003F7D427
:100AF0002878DFF8608280074FF000093ED5DBF8E8
:100B00000010584611F00C0F09D00068C0F38100A6
:100B100002280BD18D48001F0068400206D42068CF
:100B2000800715D5E868012809D111E0E868B8B157
:100B30000120C8F80000FFF7FBFD064605E002E1D2
:100B4000FFF7F6FD801B0228C0D820688007F7D584
:100B50002068296920F0F80040EAC10020600DE01B
:100B6000C8F80090FFF7E4FD064604E0FFF7E0FD5B
:100B7000801B02281FD820688007F7D42878000738
:100B800022D5724E744869696C3671B101210160D9
:100B9000FFF7CEFD074604E0FFF7CAFDC01B0228A1
:100BA00009D830688007F7D50EE0C0F80090FFF74D
:100BB000BFFD074605E083E0FFF7BAFDC01B022832
:100BC0007ED830688007F7D42878400768D5DFF8EA
:100BD0007CA100270AF1380ADAF80000C0000BD423
:100BE000DAF8001041F08051CAF80010DAF800007D
:100BF000012700F080500090584E3068C00510D496
:100C0000306840F480703060FFF792FD009005E09E
:100C1000FFF78EFD0099401A022851D83068C005B0
:100C2000F6D54A4EA868683601280FD005283068E6
:100C300010D020F001003060306820F004003060F7
:100C4000A868B8B1FFF774FD00900FE0306840F07D
:100C50000100F4E740F004003060F7E7FFF768FDBB
:100C60000099411A41F28830814264D83068800787
:100C7000F4D50EE0FFF75CFD009007E0FFF758FDAC
:100C80000099411A41F28830814254D83068800777
:100C9000F4D42FB1DAF8001021F08051CAF8001016
:100CA000A869C0B3DBF80010C1F3810102294AD062
:100CB0000228484607D0C8F86000FFF739FD00E079
:100CC00039E005463AE04746C8F86000FFF730FDD6
:100CD000064604E0FFF72CFD801B02282BD8206875
:100CE0008001F7D4D5E907010843A96A1C4A4908DD
:100CF00002EB01416A6A41EA8211084395F82C101F
:100D000040EA01611148001F016001203866FFF7C9
:100D10000FFD054605E014E0FFF70AFD401B022821
:100D200009D820688001F7D50BE000BFFFF700FD70
:100D3000401B022802D90320BDE8F88F20688001FB
:100D4000F4D40020F8E70120F6E70000083802405C
:100D50000038024000004742800E474200700040C9
:100D60000000FFFF4FF0E0210428086903D020F0C5
:100D700004000861704740F00400FAE7704710B5BE
:100D8000401EB0F1807F01D3012010BD4FF0E02460
:100D900060610F21601700F029F80020A061072092
:100DA0002061002010BD10B5FFF7E8FF10BDFEE781
:100DB0000C4810B50A490160102141600021816092
:100DC000C16001614161017641768176C17601772A
:100DD0004177FFF7E7FA002800D0FEE710BD0000DA
:100DE0000064004010000020FEE770470907090E6C
:100DF000002806DA00F00F0000F1E02080F8141D52
:100E0000704700F1E02080F8001470477047704789
:100E100010B5FFF793FCBDE81040FFF7C4BF00001A
:100E200010B5204892B00024016841F08051016063
:100E3000006800F0805011901B48016821F4404187
:100E400041F4804101600068069400F44040119034
:100E50000220009001200390102004906846FFF7C4
:100E6000F3FD00B1FEE70F20CDE90C040E940F94C2
:100E700000210CA81094FFF717FD00B1FEE7FFF763
:100E8000ABFD4FF47A71B0FBF1F0FFF778FF04206F
:100E9000FFF768FF00221146501EFFF7D3FC12B087
:100EA00010BD00004038024000700040104801684A
:100EB00041F4700101600F48016841F001010160D7
:100EC0000C4A00210832116002680B4B1A40026084
:100ED000031D0A4A1A60026822F480220260054853
:100EE0000C300160024958068039086070470000E4
:100EF00088ED00E000380240FFFFF6FE10300024CD
:100F0000FEE702E008C8121F08C1002AFAD17047A4
:100F10007047002001E001C1121F002AFBD1704779
:100F20008AB0FFF713FCFFF77BFF16480024016827
:100F300041F002010160006800F002000990FFF733
:100F400037FF40F20520CDE9000408200294CDE9E6
:100F500003400DA08DF81440D0E90010CDE9061033
:100F6000012008900A48FFF7D1FA0948FFF702FA72
:100F70000028FAD008AB06AA69460548FFF796F99B
:100F8000F3E7000030380240FF00FF0000FF0000E0
:100F90001000002000000000000000000102030417
:100FA00006070809C40F0008000000201000000018
:100FB000020F0008D40F00081000002028040000D1
:100FC000120F0008010000001000000000000000E7
:040FD0000024F40005
:04000005080001AD41
:00000001FF
